:100000000C9462000C948A000C948A000C948A0070
:100010000C948A000C948A000C948A000C948A0038
:100020000C948A000C948A000C948A000C948A0028
:100030000C948A000C948A000C948A000C948A0018
:100040000C944C020C948A000C94BC020C94960202
:100050000C948A000C948A000C948A000C948A00F8
:100060000C948A000C948A000000000024002700F1
:100070002A000000000023002600290000000000E4
:10008000250028002B0004040404040404040202D4
:100090000202020203030303030301020408102007
:1000A0004080010204081020010204081020000012
:1000B0000008000201000003040700000000000027
:1000C0000000F50311241FBECFEFD8E0DEBFCDBF87
:1000D00011E0A0E0B1E0E4E5F8E002C005900D9287
:1000E000AE34B107D9F721E0AEE4B1E001C01D9212
:1000F000A43FB207E1F710E0C2E6D0E004C02197C8
:10010000FE010E942204C136D107C9F70E94EE0207
:100110000C9428040C940000833081F028F4813082
:1001200099F08230A9F008958730A9F08830C9F09D
:100130008430B1F4809180008F7D03C08091800075
:100140008F7780938000089584B58F7784BD08955C
:1001500084B58F7DFBCF8091B0008F778093B00006
:1001600008958091B0008F7DF9CF1F93CF93DF93D7
:10017000E3EBF0E09491EFE9F0E0D491EBE8F0E00C
:10018000C491CC23B9F0182F992319F0892F0E941C
:100190008C00EC2FF0E0EE0FFF1FE458FF4FA5910D
:1001A000B4918FB7F894EC91111108C0D095DE236B
:1001B000DC938FBFDF91CF911F910895DE2BF8CF95
:1001C0003FB7F8948091530190915401A09155014B
:1001D000B091560126B5A89B05C02F3F19F0019696
:1001E000A11DB11D3FBFBA2FA92F982F8827BC0191
:1001F000CD01620F711D811D911D42E0660F771FB9
:10020000881F991F4A95D1F708958F929F92AF92B8
:10021000BF92CF92DF92EF92FF924B015C010E945E
:10022000E0006B017C010E94E0006C197D098E09E1
:100230009F09683E734081059105A8F321E0821A69
:100240009108A108B10888EEC80E83E0D81EE11C11
:10025000F11C81149104A104B10429F7FF90EF90DF
:10026000DF90CF90BF90AF909F908F900895AF9206
:10027000BF92CF92DF92EF92FF920F931F93CF9393
:10028000DF936C017B018B01040F151FEB015E01F5
:10029000AE18BF08C017D10759F06991D601ED918A
:1002A000FC910190F081E02DC6010995892B79F729
:1002B000C501DF91CF911F910F91FF90EF90DF90DB
:1002C000CF90BF90AF900895FC01538D448D252FA2
:1002D00030E0842F90E0821B930B541710F0CF96E0
:1002E000089501970895FC01918D828D981761F012
:1002F000A28DAE0FBF2FB11D5D968C91928D9F5F29
:100300009F73928F90E008958FEF9FEF0895FC0107
:10031000918D828D981731F0828DE80FF11D858DBA
:1003200090E008958FEF9FEF0895FC01918D228D4D
:10033000892F90E0805C9F4F821B91098F739927D2
:10034000089587E591E00E94950121E0892B09F449
:1003500020E0822F089580E090E0892B29F00E9410
:10036000A10181110C9400000895FC01A48DA80F37
:10037000B92FB11DA35ABF4F2C91848D90E00196E7
:100380008F739927848FA689B7892C93A089B18907
:100390008C91837080648C93938D848D981306C0A8
:1003A0000288F389E02D80818F7D80830895EF920C
:1003B000FF920F931F93CF93DF93EC0181E0888F1F
:1003C0009B8D8C8D98131AC0E889F989808185FFEF
:1003D00015C09FB7F894EE89FF896083E889F98991
:1003E00080818370806480839FBF81E090E0DF9193
:1003F000CF911F910F91FF90EF900895F62E0B8DE6
:1004000010E00F5F1F4F0F731127E02E8C8D8E11A0
:100410000CC00FB607FCFACFE889F989808185FF07
:10042000F5CFCE010E94B501F1CFEB8DEC0FFD2F82
:10043000F11DE35AFF4FF0829FB7F8940B8FEA89C2
:10044000FB8980818062CFCFCF93DF93EC01888DD1
:100450008823B9F0AA89BB89E889F9898C9185FD3F
:1004600003C0808186FD0DC00FB607FCF7CF8C91CD
:1004700085FFF2CF808185FFEDCFCE010E94B501CF
:10048000E9CFDF91CF91089542E050E062E171E061
:1004900087E591E00C9437011F920F920FB60F92EF
:1004A00011242F933F938F939F93AF93BF9380918A
:1004B0004F0190915001A0915101B09152013091A2
:1004C0004E0123E0230F2D3758F50196A11DB11DD4
:1004D00020934E0180934F0190935001A0935101BE
:1004E000B09352018091530190915401A091550114
:1004F000B09156010196A11DB11D809353019093B7
:100500005401A0935501B0935601BF91AF919F91B3
:100510008F913F912F910F900FBE0F901F901895C4
:1005200026E8230F0296A11DB11DD2CF1F920F9274
:100530000FB60F9211242F933F934F935F936F93B6
:100540007F938F939F93AF93BF93EF93FF9387E531
:1005500091E00E94B501FF91EF91BF91AF919F9102
:100560008F917F916F915F914F913F912F910F905C
:100570000FBE0F901F9018951F920F920FB60F92FB
:1005800011242F938F939F93EF93FF93E091670133
:10059000F09168018081E0916D01F0916E0182FD22
:1005A0001BC09081809170018F5F8F7320917101CA
:1005B000821741F0E0917001F0E0E95AFE4F958F0B
:1005C00080937001FF91EF919F918F912F910F90E8
:1005D0000FBE0F901F9018958081F4CF789484B54A
:1005E000826084BD84B5816084BD85B5826085BD2F
:1005F00085B5816085BD80916E00816080936E00BD
:1006000010928100809181008260809381008091AE
:10061000810081608093810080918000816080935F
:1006200080008091B10084608093B1008091B0001F
:1006300081608093B00080917A00846080937A001A
:1006400080917A00826080937A0080917A00816044
:1006500080937A0080917A00806880937A0010926B
:10066000C100CEE9D0E0FE0124910AE810E0F801D3
:1006700084918823C9F090E0880F991FFC01E85904
:10068000FF4FA591B491FC01E458FF4F459154915F
:100690003FB7F8949C91822F809598239C93FA0100
:1006A0009081892380833FBFEFE9F0E02491EBE85C
:1006B000F0E08491882399F090E0880F991FFC0165
:1006C000E859FF4FA591B491FC01E458FF4F859183
:1006D00094918FB7F894EC91E22BEC938FBFE0915B
:1006E0006701F091680182E08083E0916301F091FD
:1006F00064011082E0916501F09166018FEC8083C6
:1007000010926F01E0916B01F0916C0186E08083A3
:10071000E0916901F0916A01808180618083E091BC
:100720006901F0916A01808188608083E0916901AC
:10073000F0916A01808180688083E0916901F09185
:100740006A0180818F7D808392EBE92E90E0F92E03
:1007500020E0C22E20E0D22EF7018491FE01A49069
:10076000F801B490BB20B1F181110E948C00EB2DF7
:10077000F0E0EE0FFF1FEE58FF4FA591B4918C9162
:10078000A82241F144E250E065E171E087E591E0A3
:100790000E9437010E94440281E00E94B50068E88F
:1007A00073E180E090E00E94050180E00E94B500C6
:1007B00064EF71E080E090E00E940501C114D10473
:1007C00009F4CACF0E94A101882309F4C5CF0E9471
:1007D0000000C2CF43E150E06AE371E087E591E0B9
:1007E0000E9437010E944402E3CFE7E5F1E0138263
:1007F000128288EE93E0A0E0B0E084839583A68324
:10080000B78384E091E09183808385EC90E09587C5
:10081000848784EC90E09787868780EC90E0918BCA
:10082000808B81EC90E0938B828B82EC90E0958BB7
:10083000848B86EC90E0978B868B118E128E138EB4
:10084000148E0895EE0FFF1F0590F491E02D09948A
:04085000F894FFCF4A
:1008540000000000D70137016401240295017301EF
:1008640087010D0A004D6F74696F6E2044657465CD
:1008740063746564212054726967676572696E6781
:1008840020416C61726D2E2E2E004E6F204D6F74C0
:0E089400696F6E2064657465637465642E0080
:00000001FF
