:020000040000FA
:100000000C945D000C9485000C9485000C94850084
:100010000C9485000C9485000C9485000C9485004C
:100020000C9485000C9485000C9485000C9485003C
:100030000C9485000C9485000C9485000C9485002C
:100040000C9482020C9485000C9450020C942A02A9
:100050000C9485000C9485000C9485000C9485000C
:100060000C9485000C94850000000008000201003B
:100070000003040700000000000000000000000072
:10008000250028002B0000000000240027002A0083
:10009000040404040404040402020202020203032E
:1000A0000303030301020408102040800102040836
:1000B0001020010204081020FD0311241FBECFEF01
:1000C000D8E0DEBFCDBF11E0A0E0B1E0E8EAF8E0A3
:1000D00002C005900D92AE33B107D9F721E0AEE32F
:1000E000B1E001C01D92A43EB207E1F710E0CDE5FA
:1000F000D0E004C02197FE010E944C04CC35D1070A
:10010000C9F70E94CC020C9452040C940000EDEA52
:10011000F0E02491E9E9F0E08491882399F090E0FF
:10012000880F991FFC01EA57FF4FA591B491FC017C
:10013000E458FF4F859194918FB7F894EC91E22B9E
:10014000EC938FBF0895E1E7F0E02491EDEAF0E051
:100150009491E9E9F0E0E491EE23C9F0222339F02B
:10016000233001F1A8F4213019F1223029F1F0E017
:10017000EE0FFF1FE458FF4FA591B4912FB7F894ED
:10018000EC91811126C090959E239C932FBF0895DA
:100190002730A9F02830C9F0243049F72091800099
:1001A0002F7D03C0209180002F7720938000DFCF28
:1001B00024B52F7724BDDBCF24B52F7DFBCF209135
:1001C000B0002F772093B000D2CF2091B0002F7DC8
:1001D000F9CF9E2BDACFAF92BF92CF92DF92EF9200
:1001E000FF920F931F93CF93DF936C017B018B01E1
:1001F000040F151FEB015E01AE18BF08C017D10731
:1002000059F06991D601ED91FC910190F081E02DBA
:10021000C6010995892B79F7C501DF91CF911F910F
:100220000F91FF90EF90DF90CF90BF90AF90089527
:10023000FC01538D448D252F30E0842F90E0821BEC
:10024000930B541710F0CF96089501970895FC0171
:10025000918D828D981761F0A28DAE0FBF2FB11DC9
:100260005D968C91928D9F5F9F73928F90E0089521
:100270008FEF9FEF0895FC01918D828D981731F0DB
:10028000828DE80FF11D858D90E008958FEF9FEF2F
:100290000895FC01918D228D892F90E0805C9F4F05
:1002A000821B91098F739927089587E491E00E943A
:1002B000490121E0892B09F420E0822F089580E094
:1002C00090E0892B29F00E94550181110C940000C7
:1002D0000895FC01A48DA80FB92FB11DA35ABF4FDB
:1002E0002C91848D90E001968F739927848FA68935
:1002F000B7892C93A089B1898C91837080648C9389
:10030000938D848D981306C00288F389E02D808137
:100310008F7D80830895EF92FF920F931F93CF9369
:10032000DF93EC0181E0888F9B8D8C8D98131AC030
:10033000E889F989808185FF15C09FB7F894EE8917
:10034000FF896083E889F989808183708064808374
:100350009FBF81E090E0DF91CF911F910F91FF90BF
:10036000EF900895F62E0B8D10E00F5F1F4F0F7367
:100370001127E02E8C8D8E110CC00FB607FCFACF22
:10038000E889F989808185FFF5CFCE010E94690156
:10039000F1CFEB8DEC0FFD2FF11DE35AFF4FF082F3
:1003A0009FB7F8940B8FEA89FB8980818062CFCF59
:1003B000CF93DF93EC01888D8823B9F0AA89BB899C
:1003C000E889F9898C9185FD03C0808186FD0DC087
:1003D0000FB607FCF7CF8C9185FFF2CF808185FFA8
:1003E000EDCFCE010E946901E9CFDF91CF91089551
:1003F0003FB7F8948091430190914401A091450149
:10040000B091460126B5A89B05C02F3F19F0019673
:10041000A11DB11D3FBFBA2FA92F982F8827BC015E
:10042000CD01620F711D811D911D42E0660F771F86
:10043000881F991F4A95D1F70895FC01019000206B
:10044000E9F73197AF01481B590BBC0187E491E0F4
:100450000C94EB001F920F920FB60F9211242F9362
:100460003F934F935F936F937F938F939F93AF933C
:10047000BF93EF93FF9387E491E00E946901FF919E
:10048000EF91BF91AF919F918F917F916F915F910C
:100490004F913F912F910F900FBE0F901F90189585
:1004A0001F920F920FB60F9211242F938F939F9349
:1004B000EF93FF93E0915701F09158018081E09113
:1004C0005D01F0915E0182FD1BC090818091600111
:1004D0008F5F8F7320916101821741F0E09160017D
:1004E000F0E0E95BFE4F958F80936001FF91EF9103
:1004F0009F918F912F910F900FBE0F901F90189585
:100500008081F4CF1F920F920FB60F9211242F9378
:100510003F938F939F93AF93BF9380913F019091AF
:100520004001A0914101B091420130913E0123E090
:10053000230F2D3758F50196A11DB11D20933E01C3
:1005400080933F0190934001A0934101B0934201F9
:100550008091430190914401A0914501B0914601E1
:100560000196A11DB11D8093430190934401A09376
:100570004501B0934601BF91AF919F918F913F91FB
:100580002F910F900FBE0F901F90189526E8230F04
:100590000296A11DB11DD2CFCF93DF93CDB7DEB7A9
:1005A000A1970FB6F894DEBF0FBECDBF789484B587
:1005B000826084BD84B5816084BD85B5826085BD5F
:1005C00085B5816085BD80916E00816080936E00ED
:1005D00010928100809181008260809381008091DF
:1005E0008100816080938100809180008160809390
:1005F00080008091B10084608093B1008091B00050
:1006000081608093B00080917A00846080937A004A
:1006100080917A00826080937A0080917A00816074
:1006200080937A0080917A00806880937A0010929B
:10063000C1000E948700E0915701F091580182E0CB
:100640008083E0915301F09154011082E0915501B3
:10065000F091560180E1808310925F01E0915B018F
:10066000F0915C0186E08083E0915901F0915A019C
:10067000808180618083E0915901F0915A018081ED
:1006800088608083E0915901F0915A0180818068EF
:100690008083E0915901F0915A0180818F7D8083A0
:1006A00090E4392E2AE0822E912CA12CB12C30928C
:1006B0007C0080917A00806480937A0080917A0037
:1006C00086FDFCCF8091780000917900102F082FD3
:1006D00082E191E00E941D026801012E000CEE08EB
:1006E000FF0817FF6CC06DE287E491E00E948B0168
:1006F00022273327A9012C193D094E095F0919A2A8
:10070000CE0181967C01CA01B901A50194010E9424
:100710002A04605DF70162937F01211531054105CF
:10072000510589F7E114F10419F0C7010E941D0277
:1007300080E291E00E941D020C3211400CF055C085
:100740000E94870081E00E94A30083E291E00E9462
:100750001D0280E291E00E941D020E94F8016B01DF
:100760007C0184EF482E55245394612C712C0E94F7
:10077000F8016C197D098E099F09683E7340810557
:100780009105A8F321E0421A51086108710888EE2A
:10079000C80E83E0D81EE11CF11C41145104610411
:1007A000710429F780E090E0892B09F480CF0E9442
:1007B0005501882309F47BCF0E94000078CFA70160
:1007C000960119A2CE0181967C01CA01B901A50149
:1007D00094010E942A04605DF70162937F01211554
:1007E00031054105510589F79DCF0E94870080E0C2
:1007F0000E94A30080E391E0AACFE7E4F1E0138236
:10080000128288EE93E0A0E0B0E084839583A68313
:10081000B78384E091E09183808385EC90E09587B5
:10082000848784EC90E09787868780EC90E0918BBA
:10083000808B81EC90E0938B828B82EC90E0958BA7
:10084000848B86EC90E0978B868B118E128E138EA4
:10085000148E0895A1E21A2EAA1BBB1BFD010DC028
:10086000AA1FBB1FEE1FFF1FA217B307E407F50760
:1008700020F0A21BB30BE40BF50B661F771F881F3C
:10088000991F1A9469F760957095809590959B01D2
:10089000AC01BD01CF010895EE0FFF1F0590F4914B
:1008A000E02D0994F894FFCF000000008B01EB00CD
:1008B0001801D801490127013B014C696768742080
:1008C0004C6576656C3A20000D0A004C4544205377
:1008D00074726970204F4E004C4544205374726905
:0608E00070204F464600A7
:107E0000112484B714BE81FFF0D085E080938100F7
:107E100082E08093C00088E18093C10086E0809377
:107E2000C20080E18093C4008EE0C9D0259A86E02C
:107E300020E33CEF91E0309385002093840096BBD3
:107E4000B09BFECF1D9AA8958150A9F7CC24DD24C4
:107E500088248394B5E0AB2EA1E19A2EF3E0BF2EE7
:107E6000A2D0813461F49FD0082FAFD0023811F036
:107E7000013811F484E001C083E08DD089C08234E0
:107E800011F484E103C0853419F485E0A6D080C0E4
:107E9000853579F488D0E82EFF2485D0082F10E0AE
:107EA000102F00270E291F29000F111F8ED06801E7
:107EB0006FC0863521F484E090D080E0DECF843638
:107EC00009F040C070D06FD0082F6DD080E0C81688
:107ED00080E7D80618F4F601B7BEE895C0E0D1E017
:107EE00062D089930C17E1F7F0E0CF16F0E7DF06D8
:107EF00018F0F601B7BEE89568D007B600FCFDCFD4
:107F0000A601A0E0B1E02C9130E011968C91119780
:107F100090E0982F8827822B932B1296FA010C0160
:107F200087BEE89511244E5F5F4FF1E0A038BF0790
:107F300051F7F601A7BEE89507B600FCFDCF97BE46
:107F4000E89526C08437B1F42ED02DD0F82E2BD052
:107F50003CD0F601EF2C8F010F5F1F4F84911BD097
:107F6000EA94F801C1F70894C11CD11CFA94CF0C13
:107F7000D11C0EC0853739F428D08EE10CD085E9AC
:107F80000AD08FE07ACF813511F488E018D01DD067
:107F900080E101D065CF982F8091C00085FFFCCF94
:107FA0009093C60008958091C00087FFFCCF809118
:107FB000C00084FD01C0A8958091C6000895E0E648
:107FC000F0E098E1908380830895EDDF803219F02E
:107FD00088E0F5DFFFCF84E1DECF1F93182FE3DFCA
:107FE0001150E9F7F2DF1F91089580E0E8DFEE27F6
:047FF000FF270994CA
:027FFE00040479
:00000001FF
